:020000040800F2
:10000000302000201D130008B5040008B7040008C4
:10001000B9040008BB040008BD040008000000008B
:10002000000000000000000000000000BF04000805
:10003000C104000800000000C3040008C504000853
:100040003713000837130008371300083713000868
:100050003713000837130008371300083713000858
:100060003713000837130008371300083713000848
:100070003713000837130008371300083713000838
:100080003713000837130008371300083713000828
:100090003713000837130008371300083713000818
:1000A0003713000837130008371300083713000808
:1000B00037130008371300083713000837130008F8
:1000C00037130008371300083713000837130008E8
:1000D00037130008B512000837130008371300085B
:1000E00037130008371300083713000800F002F830
:1000F00000F062F80AA090E8000C82448344AAF160
:100100000107DA4501D100F057F8AFF2090EBAE85D
:100110000F0013F0010F18BFFB1A43F0010318473B
:100120009C3B0000BC3B00000A444FF0000C10F860
:10013000013B13F0070408BF10F8014B1D1108BF65
:1001400010F8015B641E05D010F8016B641E01F805
:10015000016BF9D113F0080F1EBF10F8014BAD1C55
:100160000C1B09D16D1E58BF01F801CBFAD505E073
:1001700014F8016B01F8016B6D1EF9D59142D6D3CD
:10018000704700000023002400250026103A28BFF5
:1001900078C1FBD8520728BF30C148BF0B607047F9
:1001A000642901F0AD85782901F0E68500207047CB
:1001B0001FB51FBD10B510BD01F09CFE1146FFF725
:1001C000F7FF00F047F801F0BAFE03B4FFF7F2FFC3
:1001D00003BC01F019F8000070B5954D03244FF4ED
:1001E0000056C82000F0E8FF3146284601F07DF9AE
:1001F000C82000F0E1FF3146284601F074F9641E82
:10020000E4B2EED270BD8B4A01461069B1EB400FEB
:1002100001D900207047506888424FF00100F9D89A
:1002200052F820308B42F5D8401CC0B20528F7D3D5
:10023000052070477F49012001EB800351F8202001
:100240005B681A44520841F82020401CC0B20428C0
:10025000F2D3704786B000F081FF00F0DFF94FF471
:10026000E13000F0DBFF00F0CBFF00F0B6FE002035
:1002700000F04AFC002000F04EFC00F07AFC02E0A6
:10028000322000F099FF00F075FB0028F8D1FFF74D
:10029000A3FF4FF4FA77384600F08EFF664C002536
:1002A0002A4666A1684601F0E3FC0C236A46022157
:1002B000184600F097FD0C2365A21E21184600F099
:1002C00091FD00F056FC02E00A2000F075FF00F0FE
:1002D000BEF90028F8D102E0322000F06DFF00F0F6
:1002E00049FB0028F8D1384600F066FF002000F0F6
:1002F00017FB0646012000F013FB30444D4940082F
:10030000606041F8250000F056FC2A4655A1684679
:10031000636801F0ADFC0C236A463221142000F022
:1003200061FD00F026FCFFF757FF606808B96D1EFD
:10033000EDB26D1CEDB2052DB2D3FFF77BFF00F0DF
:100340003AFC00F016FC02E0322000F035FF00F02D
:1003500011FB0028F8D100F0E3FA0646012000F076
:10036000DFFA05460246314641A001F075FC7019DE
:1003700040086060EBD0FFF746FF2070FFF72CFFCE
:1003800000F019FC227842B141A1684601F070FCEE
:10039000102314216A46192007E040A1684601F0A5
:1003A00067FC10236A461421082000F01BFD3FA1C2
:1003B0006846626801F05CFC0C236A4632211E200C
:1003C00000F010FD00F0D5FB4FF40051184801F08B
:1003D0008AF823E000F0EFFB227842B12CA16846B6
:1003E00001F046FC102314216A46192007E02BA1D6
:1003F000684601F03DFC10236A461421082000F0F5
:10040000F1FC2AA16846626801F032FC0C236A46BE
:1004100032211E2000F0E6FC00F0ABFB00F017F9E3
:100420000546642000F0C8FE002D90D0D2E7000001
:10043000001001407414002000000020507574204A
:100440006F6E20256420706170657228732900002A
:100450005468656E20707265737320627574746F72
:100460006E0000006E756D25643A20256400000062
:10047000444154413A200D0A206368303A202564F3
:100480002C206368313A202564200D0A000000000A
:100490004E756D6265723A202564000053686F7274
:1004A0007420636972637569740000007265733A41
:1004B000202564007047FEE7FEE7FEE7FEE7704791
:1004C00070477047704700000CB500214B48019100
:1004D0000091026842F4803202604FF4A063026827
:1004E00002F400320092019A521C0192009A12B951
:1004F000019A9A42F3D10268920333D50121009107
:100500003F490A6842F010020A600A6822F00302BA
:100510000A600A6842F002020A604168416041686C
:100520004160416841F480614160416821F47C117F
:100530004160416841F4E8114160016841F0807117
:10054000016001688901FCD5416821F00301416027
:10055000416841F0020141604168C1F38101022913
:10056000FAD10CBD00910CBD244810B5016841F0D2
:10057000010101604168234A114041600168224A3B
:1005800011400160016821F480210160416821F47B
:10059000FE0141604FF41F018160FFF795FF1B4989
:1005A0004FF00060086010BD144910B54868184A43
:1005B00010F00C03174803D0042B01D0082B0AD0ED
:1005C00002604968134AC1F30311121D515C0268AD
:1005D000CA40026010BD4A684B6802F470124FF0C6
:1005E000020413F4803F04EB924202D04B689B0359
:1005F00001D5094B00E0064B5A43E1E700100240E9
:10060000002002400000FFF8FFFFF6FE08ED00E0CA
:1006100000127A000800002000093D0038B50121D1
:10062000042001F0DCF84FF48074ADF800400120A4
:100630008DF802002820114D8DF8030069462846E8
:1006400000F0E3FE2146284600F04DFF38BD10B50E
:100650000B4CD4F8200128B90A2000F0ADFDD4F8E5
:10066000200120B1012010BD0A2000F0A5FDD4F822
:1006700020010028F8D0002010BD00000008014033
:1006800000002142082000F080BD38B5012108207B
:1006900001F0A5F8C020ADF8000010208DF803008F
:1006A0000320F84C8DF802006946204600F0ADFEAC
:1006B000C021204600F017FF38BD70B5F148016831
:1006C00021F070410160016841F040510160EE4C41
:1006D0000120C4F89C01C4F89801082004F5CC74EA
:1006E00000F053FD00256560082000F04EFD2560F8
:1006F00070BDE44810B5016821F0704101600168E7
:1007000041F040510160E04C0020C4F89801C4F869
:100710009C01082004F5CC7400F037FD0120206016
:100720006060BDE81040082000F02FBD70B5D548CE
:100730000024016821F070410160016841F000412E
:100740000160D14D0126C5F89C61082000F01DFD17
:10075000C5F89861082000F018FD07E0641CA4B2F9
:100760000A2C03D9FFF7C5FF012070BDD5F81C0185
:100770000028F3D1C5F8980170BD70B5C24C0025B2
:10078000C4F89851C4F89C51082004F5CC7400F0CA
:10079000FCFC01262660082000F0F7FC25600820FC
:1007A00000F0F3FC666070BD70B5B74C0025C4F86E
:1007B0009851B448016821F070410160016841F02E
:1007C000405101600126C4F89C61082004F5CC74F6
:1007D00000F0DBFC2660082000F0D7FC256070BD2F
:1007E0002DE9F0410646A748016821F070410160FB
:1007F000016841F040510160A34C0027C4F8987192
:100800003D464FF00108F009C4F89C017006060E41
:10081000C4F89881082000F0B8FCC4F8987108204A
:1008200000F0B3FC6D1CEDB2082DECD3BDE8F081F7
:100830002DE9F047814693480024016821F070417A
:100840000160016841F0004101608F4E2546274656
:100850004FF00108C6F89871082000F096FCC6F821
:1008600098816006040ED6F81C0108B1641CE4B23D
:10087000082000F08AFC6D1CEDB2082DEAD3B9F116
:10088000000F04D0FFF779FF2046BDE8F087FFF79F
:100890008BFFF9E770B514460D460646FFF70DFFCE
:1008A0005420FFF79DFFFFF741FF80B93046FFF767
:1008B00097FFFFF73BFF2846FFF792FFFFF736FF52
:1008C00028B92046FFF78CFFFFF730FF18B1FFF77C
:1008D00010FF012070BDFFF70CFF002070BD10B5A8
:1008E0000446FFF7EAFE5420FFF77AFFFFF71EFFEA
:1008F0002046FFF775FFFFF719FFFFF7DEFE5520D3
:10090000FFF76EFFFFF712FF0120FFF791FF0402D0
:100910000020FFF78DFF0443FFF7EBFE204610BDDC
:1009200010B5010011D0012916D002291BD00328CF
:100930000AD10620FFF7D3FFC0F30B045FF00700D6
:10094000FFF7CDFF40EA044010BD0020FFF7C7FFCE
:10095000C0F30B040120F3E70220FFF7C0FFC0F350
:100960000B040320ECE70420FFF7B9FFC0F30B04EE
:100970000520E5E710B5FFF788FE7E20FFF7AFFF03
:1009800004467F20FFF7ABFF014640A001F064F969
:10099000A4F5A840493801D0012010BDFB22342124
:1009A0000820FFF777FFFB2234210920FFF772FFB1
:1009B000FB2234210A20FFF76DFFFB2234210B209C
:1009C000FFF768FF1B2200211020FFF763FF1B22A7
:1009D00000211120FFF75EFF1B2200211220FFF7EC
:1009E00059FF1B2200211320FFF754FF0222202170
:1009F0001420FFF74FFF022220211520FFF74AFFA6
:100A0000022220211620FFF745FF02222021172075
:100A1000FFF740FF002278211E20FFF73BFF002256
:100A200078211F20FFF736FF002278212020FFF7D2
:100A300031FF002278212120FFF72CFF00221146F0
:100A40001920FFF727FF0D22C2211B20FFF722FFED
:100A5000012214211A20FFF71DFF002010BD10B540
:100A6000FFF75EFF01F002FC02460B460A480B4905
:100A700001F0A4FA01F070FABDE81040014601F05F
:100A80005DBC0000000C01400080214249443A2036
:100A90002578200D0A000000DBF97E6AB8A8AB417A
:100AA00070B5F84E054600294FF00401304602D0DB
:100AB00000F019FD01E000F018FD1021304600F0B3
:100AC00014FD00242021304600F00FFD28064FF0D1
:100AD0008001304602D500F006FD01E000F005FD82
:100AE0002021304600F0FFFC6806641C050EE4B2CD
:100AF000082CE7D31021304600F0F5FC3046BDE865
:100B00007040042100F0EFBC4FF0000108B1A720B5
:100B1000C6E7A620FCE710B54FF0000138B1C020B1
:100B2000FFF7BEFF0021A020BDE81040B8E7C820B5
:100B3000FFF7B6FF0021A120F6E710B500218D20B8
:100B4000FFF7AEFF00211420FFF7AAFF0021BDE848
:100B50001040AF20A4E710B500218D20FFF7A0FFC3
:100B600000211020FFF79CFF0021BDE81040AF20BE
:100B700096E770B5C44E002404F1B000C0B2002165
:100B8000FFF78EFF00210846FFF78AFF00211020A3
:100B9000FFF786FF5FF0000506EBC5000121005D51
:100BA000FFF77EFF6D1CEDB2802DF5D3641CE4B21F
:100BB000082CE1D370BD30B40021B34B0A460020AD
:100BC00003EBC004401CC0B262548028F8D3491C17
:100BD000C9B20829F3D330BCCBE7CA0801F0070338
:100BE00001219940A84B03EBC000835C0B43835465
:100BF0007047CA0801F0070301219940A24B03EB9B
:100C0000C003985C61EA0000C043985470472DE926
:100C1000F0410D460646A3EB050C90420CD1002492
:100C200006E02819C1B23046FFF7D7FF641CE4B2D2
:100C3000A445F6DCBDE8F081971B9D420BD1002452
:100C400006E03019C0B22946FFF7C7FF641CE4B2C2
:100C5000A742F6DCEEE70CF0FF0101EB8101490051
:100C6000F8B2B1FBF0F000F0FF0C00244FF00A08DE
:100C70000CE000BF04FB0CF0B0FBF8F02844C1B25C
:100C80003019C0B2FFF7A9FF641CE4B2A742F1DC3F
:100C9000D0E72DE9F04F16460F468446002514464E
:100CA00002FB06F84BE000BFA7EB04090CEB050BB9
:100CB00009F0FF010BF0FF00FFF78FFF09F0FF01C4
:100CC000ACEB050909F0FF00FFF787FF07EB040A0B
:100CD0000AF0FF0109F0FF00FFF77FFF0AF0FF01B4
:100CE0000BF0FF00FFF779FF07EB050B0CEB040A95
:100CF0000BF0FF010AF0FF00FFF76FFFA7EB0509FC
:100D000009F0FF010AF0FF00FFF767FF09F0FF019C
:100D1000ACEB040909F0FF00FFF75FFF0BF0FF01E8
:100D200009F0FF00FFF759FF6D1C05FB05F004FB00
:100D3000040006FB1600002801DD641E6D1E600025
:100D400060434045B0DABDE8F08F2DE9F04F8346AF
:100D50001D460C468846580700D0012000EBD50000
:100D600069084843203A00F0FF0902F0FF0A002614
:100D700035E00C2D12D0102D14D0182DE3D143499D
:100D80000AEBCA0001EB80004FF0000C875D2146A2
:100D9000380658460AD5FFF720FF09E00AEB4A005B
:100DA0003B49EFE73B4901EB0A10EDE7FFF721FF75
:100DB0007806641C070EE4B2A4EB0800A84205D133
:100DC0000BF10100444600F0FF0B06E00CF1010CB2
:100DD0000CF0FF0CBCF1080FD9D3761CF6B24E45CF
:100DE000C7D3B0E72DE9F0411E46154688460446B4
:100DF000C3F180070FE0334641462046FFF7A5FFC9
:100E000004EB5600C4B2A74204DA08F10200002441
:100E100000F0FF086D1C2A78A2F120005E28EAD9B4
:100E200008E70246012000E05043491EC9B2FBD248
:100E300070472DE9F0471D46DDF8208091468A462F
:100E4000074600244FEA580618E0281B401EC1B28E
:100E50000A20FFF7E6FFB9FBF0F00A21B0FBF1F240
:100E600001FB1200C0B13030C2B206FB0470C0B248
:100E700043465146FFF769FF641CE4B2AC42E4D339
:100E8000BDE8F0870008014088140020382F0008D2
:100E9000D42400084829000806FB0470C0B2434669
:100EA0003022E6E72DE9FF4F804682B000201C4645
:100EB0000F46C3468A464FEAD309019052E0049890
:100EC0000199604301EBD000C0B20090481CC0B251
:100ED0000025019044E0102C13D0182C16D0202CA3
:100EE0001BD0402C43D19749009801EB40204FF094
:100EF000000C465D3946F007404614D0FFF76DFE02
:100F000013E09149009801EB0010F0E700988F4939
:100F100000EBC00001EBC000E9E78C490098D83134
:100F200001EBC010E3E7FFF764FE7F1C0CF1010C3E
:100F300076080CF0FF0CFFB2BCF1080FDAD308F111
:100F4000010000F0FF08A8EB0B005946A04204D1B5
:100F50000AF10800884600F0FF0A6D1C5746EDB202
:100F6000A542B8D3B9F1010101F0FF09A7D206B03B
:100F7000E9E610B50446B031C8B20021FFF790FD94
:100F8000102040EA14100021FFF78AFD04F00F0042
:100F9000BDE8104040F00100002181E52DE9F04757
:100FA000984617460C4682460026DDF8209011E050
:100FB00021465046FFF7DDFF554607E019F80600C9
:100FC0000121FFF76DFD6D1CEDB2761CBD42F5D31E
:100FD000641CE4B24445EBD352E7F8B50121052087
:100FE00000F0FDFB01215A4800F09EFABC20ADF84C
:100FF00000001024574F8DF8034003258DF8025050
:101000006946384600F001FABC21384600F06BFA18
:101010000121102000F0E3FB6602ADF800608DF8BE
:1010200003404D4C8DF802506946204600F0EDF922
:101030003146204600F057FA0821384600F053FAAE
:10104000642000F0B9F80821384600F04EFAC820B4
:1010500000F0B2F80821384600F045FA0021AE2031
:10106000FFF71EFD00210846FFF71AFD00211020A2
:10107000FFF716FD00214020FFF712FD002181201F
:10108000FFF70EFD0021CF20FFF70AFD0021A12070
:10109000FFF706FD0021C820FFF702FD0021A62072
:1010A000FFF7FEFC0021A820FFF7FAFC00213F20FB
:1010B000FFF7F6FC0021D320FFF7F2FC00210846E1
:1010C000FFF7EEFC0021D520FFF7EAFC002180208D
:1010D000FFF7E6FC0021D920FFF7E2FC0021F12018
:1010E000FFF7DEFC0021DA20FFF7DAFC00211220F6
:1010F000FFF7D6FC0021DB20FFF7D2FC00214020C7
:10110000FFF7CEFC00212020FFF7CAFC00210220BF
:10111000FFF7C6FC00218D20FFF7C2FC0021142040
:10112000FFF7BEFC0021A420FFF7BAFC0021A62097
:10113000FFF7B6FC0021AF20FFF7B2FCFFF73BFD45
:10114000F8BD0000540400201C0000207C01002099
:1011500000023000000801400010014010B56FF09F
:10116000040000F064FD204820490068B0FBF1F065
:10117000C1B21F4801EB41020170C2EBC1114FF631
:10118000FF7202EAC101418010BD19490978484344
:101190004FF0E021486100228A61086940F00100B7
:1011A00008610869C30701D0C003FAD5086920F0B7
:1011B000010008618A6170470D49498848434FF032
:1011C000E021486100228A61086940F0010008615D
:1011D0000869C30701D0C003FAD5086920F00100EF
:1011E00008618A61704700000800002000127A0040
:1011F0005414002030BF704772B6704762B6704713
:101200004FF4A06000F0CEBC704740490A885206F7
:10121000FCD53E4AC1B2121D1180704770B505461B
:1012200086B0012144F2040000F0D9FA4FF40070B6
:10123000ADF8100003248DF812401820344E8DF8BC
:10124000130004A9304600F0E0F83015ADF81000A6
:1012500004208DF8130004A9304600F0D6F82520AC
:101260008DF814008DF815408DF8164001208DF88A
:10127000170005A800F09BFC0020ADF80400ADF8B5
:101280000600ADF80800ADF80C000C201F4CADF8BE
:101290000A0000956946204600F020FB012240F23A
:1012A0002551204600F097FB0121204600F089FBE4
:1012B00006B070BD70B5154C40F22551204600F0C7
:1012C00041FC00280ED0204600F0D5FBC2B21148E8
:1012D00001880B0406D44C044FF0000306D50A2AFB
:1012E00001D0038070BD41F400410DE00D2A09D00A
:1012F000C1F30D04084D491C89B22A550180C72944
:10130000EFD870BD41F48041018070BD00380140CC
:10131000000801405814002008190020094880479F
:1013200009480047FEE7FEE7FEE7FEE7FEE7FEE7C7
:10133000FEE7FEE7FEE7FEE704480549054A064BDF
:101340007047000069050008ED000008301A002011
:1013500030200020301C0020301C0020914910B5A6
:10136000884206D10121042000F04BFA002104201C
:101370003BE08D49884206D10121082000F041FA66
:101380000021082031E08949884206D1012110203E
:1013900000F037FA0021102027E08549884206D165
:1013A0000121202000F02DFA002120201DE081499C
:1013B000884206D10121402000F023FA002140207C
:1013C00013E07D49884206D10121802000F019FAFE
:1013D0000021802009E0794988420AD18415012141
:1013E000204600F00EFA00212046BDE8104000F033
:1013F00008BA10BD10B50121084600F002FA00211C
:10140000BDE81040012000F0FCB9F0B5CA78002515
:1014100002F00F03D20601D58A7813430A784FF001
:101420000F0E12F0FF0F4FF001021DD0D0F8004058
:101430000F8802FA05F63740B74211D14FEA850C02
:101440000EFA0CF724EA070703FA0CF43C43CF78B2
:10145000282F02D0482F02D002E0466100E006614A
:101460006D1C082DE4D304600C88FF2C1ED9446841
:101470005FF0000606F1080702FA07F50F882F4013
:10148000AF420FD14FEA860C0EFA0CF7BC4303FAB9
:101490000CF73C43CF78282F00D14561CF78482FF7
:1014A00000D10561761C082EE4D34460F0BD4FF6F0
:1014B000FF710180022181700421C17070470246D2
:1014C000002092680A4200D001207047806880B2F4
:1014D000704702460020D2680A4200D001207047BF
:1014E000C06880B2704701617047416170470AB1BE
:1014F0000161704741617047C160704741F48032BB
:101500008261816182618169806970472C4B10B56D
:101510001A684FF68074224042EA001008431860AF
:1015200010BD2849C8617047F0B5254C002801DA84
:10153000E36900E06368420D120185B2C0F3015710
:101540009540C0F30346032F05D0C2020AD50322FB
:10155000B240934307E023F07062636823F0706346
:10156000636002E0AB4343F0706201B12A4300289C
:1015700001DAE261F0BD6260F0BD10B58A0721F0CA
:1015800003040F49130F21440F228C689A4094439F
:101590008C608A68984002438A6010BD0949C1F88E
:1015A000DC00704700080140000C014000100140C1
:1015B0000014014000180140001C014000200140BF
:1015C0000000014000002042A448016841F00101F0
:1015D00001604168A24A114041600168A14A11407E
:1015E0000160016821F480210160416821F4FE015D
:1015F00041604FF41F018160704798490A6822F4E6
:1016000080320A600A6822F480220A60B0F5803FC6
:1016100007D0B0F5802F03D1086840F4A0200860FF
:101620007047086840F48030F9E70246002053090B
:101630008A49012B0AD0022B0AD0496A02F01F0204
:10164000012393400B4200D0012070470968F5E761
:10165000096AF3E718B500204FF4A0640090312028
:10166000FFF7E3FF0099491C0091A14201D0002837
:10167000F5D03120FFF7D9FF002800D0012018BD98
:1016800076490A6822F0F80242EAC0000860704712
:10169000754908607047714A5368084323F47C1306
:1016A0001843506070477049086670476B4A51682C
:1016B00021F003010143516070476848406800F021
:1016C0000C007047654A516821F0F00101435160F8
:1016D0007047624A516821F4E061014351607047EC
:1016E0005E494A6822F4605242EAC000486070478E
:1016F0005A4A0029517A01D0014300E081435172D6
:1017000070475949C1F8D8007047544A516821F4CC
:1017100040410143516070475049002281F8202028
:1017200081F82020012802D0042802D1052081F868
:10173000200070474D490860704748490A6A0243D3
:101740000A627047494944390860704730B54349D7
:101750004A6812F00C03464A03D0042B01D0082B30
:1017600021D002604A680F23424C03EA1212A35CA4
:101770000268DA4042604B68072505EA1323E35C00
:1017800022FA03F383604B6805EAD323E35CDA4073
:10179000C2604968032303EA9131231F595CB2FBFD
:1017A000F1F1016130BD4A684B6802F470124FF0EC
:1017B000020413F4803F04EB924202D04B689B0377
:1017C00001D52D4B00E02A4B5A43CAE7234A002992
:1017D000516901D0014300E08143516170471F4AC4
:1017E0000029916901D0014300E081439161704774
:1017F0001A4A0029D16901D0014300E08143D16137
:101800007047164A0029D16801D0014300E08143A6
:10181000D1607047114A0029116901D0014300E0ED
:1018200081431161704711494039086070470E4982
:10183000C86470470949C87170470848416A41F057
:10184000807141627047054A0146002092680A4251
:1018500000D0012070470149887270470010024093
:101860000000FFF8FFFFF6FE000042428004424203
:1018700000127A006414002000093D00C44910B52C
:1018800088420AD101218C032046FFF7BAFF204687
:10189000BDE810400021FFF7B4BFBE49884202D125
:1018A00001214C0410E0BC49884202D101218C0482
:1018B0000AE0BA49884202D10121CC0404E0B849C7
:1018C00088420AD101210C052046FFF7A3FF2046DC
:1018D000BDE810400021FFF79DBF10BD30B50446A4
:1018E000008A85B00D464CF6FF710840E988014337
:1018F0002182A1894EF6F3100140A8882A8910435D
:101900006A890A431043A081A08A4FF6FF4108402C
:10191000A9890143A1826846FFF718FF9C488442C9
:1019200001D1039800E00298A189090400EBC001ED
:1019300001EB0010296801D5490000E08900B0FBE7
:10194000F1F06422B0FBF2F109010B096FF0180508
:101950006B4300EB8300A3891D044FF0320306D5CF
:1019600003EBC000B0FBF2F000F0070005E003EB72
:101970000010B0FBF2F000F00F000843208105B02A
:1019800030BD4FF41651016000218180C18001817A
:101990000C2242818181704710B5038A4FF2FF0209
:1019A00013400A884C8822438C88C9880C43224300
:1019B0001A43028210BD0021018041808180C180D4
:1019C00070470029818902D041F4005101E021F4DF
:1019D00000518181704710B5C1F3421301F01F041B
:1019E0000121A140012B07D0022B07D01430002A7F
:1019F000026805D00A4304E00C30F8E71030F6E73F
:101A00008A43026010BD002A828A01D00A4300E0A6
:101A10008A4382827047028A22F00F020282028A7F
:101A20000A4302827047828922F40062828182899D
:101A30000A43828170470029818902D041F0020166
:101A400001E021F0020181817047028A22F0200228
:101A50000282028A0A43028270470029018A02D068
:101A600041F4804101E021F4804101827047C1F3DB
:101A70000801818070478088C0F308007047818921
:101A800041F0010181817047028BD2B20283028B47
:101A900042EA012101837047028B02F47F420283F4
:101AA000028B0A43028370470029818A02D041F0E9
:101AB000200101E021F02001818270470029818A04
:101AC00002D041F0100101E021F010018182704745
:101AD0000029818A02D041F0080101E021F00801CB
:101AE000818270470029818902D041F4004101E0E0
:101AF000C1F30E01818170470029818A02D041F42F
:101B0000006101E021F4006181827047828A22F045
:101B100004028282828A0A43828270470029818A73
:101B200002D041F0020101E021F002018182704700
:101B30000246002012880A4200D001207047C943A3
:101B40000180704730B501F01F0201240025C1F368
:101B5000421304FA02F2012B0FD0022B0FD0838A1A
:101B60004FEA11210088134204FA01F400EA04004C
:101B700001D000B10125284630BD8389F0E7038AF2
:101B8000EEE70A0A01219140C94301807047000035
:101B9000003801400044004000480040004C004034
:101BA000005000402849084328490860704770B534
:101BB0000F23C47801780122F4B1244C24684578BD
:101BC00004F4E064C4F5E064240AC4F10406E340CC
:101BD0008478B5401C402C4301F1E021230181F8B9
:101BE0000034007800F01F018A404009800000F1B5
:101BF000E020C0F8002170BD01F01F0082404809BC
:101C0000800000F1E020C0F8802170BD104A114032
:101C100001430E48001F016070470C4A121D002945
:101C2000116801D0014300E08143116070474FF01B
:101C3000E0210428086903D020F0040008617047FF
:101C400040F00400FAE700000000FA050CED00E0A7
:101C500080FFFF1F704700000FB4044910B503AAAE
:101C6000029800F031F910BC5DF814FB5C14002000
:101C70000FB41CB5074B06AA7B4469460090059833
:101C800000F009F90020694600F018F91CBC5DF865
:101C900014FB0000410200002DE9F0410E4604460D
:101CA000002020622046E168884730B3252805D00F
:101CB000D4E901219047206A401CF2E7E168204600
:101CC00000278847050018D0A5F14100192802D83F
:101CD00020354FF400673246294620462760FEF73C
:101CE0005FFA40B1012804D0F61D26F00706083639
:101CF000D8E7361DD6E72846DAE7206ABDE8F08146
:101D00002DE9F0410646002410687529314616A5D4
:101D100010D0AFF30080002802DA404213A507E09C
:101D200031688A0701D512A502E0490704D511A53B
:101D3000012401E0AFF3008000210A2206F124070C
:101D400009E0B0FBF2FCB0FBF2F302FB1C00303008
:101D500078541846491C0028F3D123462A463046B9
:101D6000BDE8F04100F038B8000000002D00000090
:101D70002B0000002000000070B504460D462146EF
:101D80001068AFF300802188090502D50F4A7A4414
:101D900002E00E4A7A440E32002104F1240305E0E9
:101DA00000F00F060009965D5E54491C0028F7D12B
:101DB00020780023000704D5702D02D009B102233A
:101DC00011322046BDE8704000F006B8021F000046
:101DD00070477047704770472DE9F0470D469946A8
:101DE0009246044600F124080168880604D5E0699B
:101DF00021F01001216000E00120A84201DD471B15
:101E000000E00027A1697A1902EB0900081AA06115
:101E10002078C00602D42046AFF30080002608E0F8
:101E2000D4E901211AF806009047206A401C761C6C
:101E300020624E45F4DB2078C0060AD52046AFF379
:101E4000008006E0D4E9012130209047206A401C40
:101E50002062381EA7F10107F4DC07E0D4E9012174
:101E600018F805009047206A401C2062281EA5F142
:101E70000105F3DC2046AFF300802078000602D590
:101E80000220BDE8F0870120FBE7000001694A1C41
:101E900002610878704700B58FB0CDE901310021AB
:101EA000059105497944CDE9031011466846FFF7CD
:101EB000F3FE0FB000BD0000E5FFFFFF0A6802F867
:101EC000010B0A6070470000074B70B50D467B445C
:101ED000FFF7E1FF0446284600F008F810B14FF084
:101EE000FF3070BD204670BD39F3FFFF007B00F06E
:101EF00080007047754600F02BF8AE460500694635
:101F0000534620F00700854618B020B5FFF714FAB5
:101F1000BDE820404FF000064FF000074FF00008EA
:101F20004FF0000B21F00701AC46ACE8C009ACE86B
:101F3000C009ACE8C009ACE8C0098D46704710B5CF
:101F40000446AFF300802046BDE81040FEF73DB9DF
:101F500000487047D019002021F00042A2F16052E1
:101F6000B2F5801F01F0004328BFD2F17F6C0BD97E
:101F70005FEA001C43EAC20242EB507018BF704790
:101F800028BF20F001007047B2F5801FBCBF184683
:101F900070474FEA410C1CF5001F02D2084600F0C2
:101FA00094BA70B500F075F900000089FFF7F6BF2C
:101FB0004FF00040A0F58000704700002DE9C041BF
:101FC00030B4DFF8A0C23CEA111418BF3CEA131485
:101FD00000F0EC8081EA03051CEA111444EAD57490
:101FE00018BF1CEA131500F0C780A4EB05044FF0DE
:101FF000004545EAC12145EAC32341EA505143EA7D
:10200000525304F17F74994204F500344FEAC02022
:102010004FEAC22208BF904200F09C804FEA13654D
:102020000FF24016765D4FEA134506FB05F7C7F140
:10203000807706FB07F74FEAD737A7FB036876429E
:10204000C8F58038A7FB06CE38BFA8F1010807FB0A
:1020500008E64FF0000EA6FB028CE6FB03CEDCF197
:10206000000CCEF1004E38BFAEF1010EA6FB0C58AD
:102070004FF000074FF00005E6FB0E87A1FB08C6F6
:10208000A0FB07CE16EB0E0645F10005E1FB076548
:1020900015F1E04E7EBFA4F580345FEA46066D413F
:1020A00016F1800745F100054FEA17274FEA06664B
:1020B00047EA0567A6F1DE46B6F1805F4FEA1525CF
:1020C0001FD9384624F0010C05EBC471BCF1FE6F3A
:1020D00001EB0C1102D8F0BCBDE8008124425CBFCA
:1020E00001F5801E9EEAC47F02D4F0BCBDE80081E9
:1020F000244238D4F0BCA1F1C041BDE8004100F059
:1021000016B94FEAD22242EA43524FEAD323A7FB41
:1021100002864FEAD02040EA415007FB03661EEAE0
:102120000E0F4FEAD12105FB026658BFA6EB005601
:10213000B6EB00564FEA520E4EEAC37E18EB0E0E77
:1021400056EB530EBDD518EB02085E417F1C55F1CE
:102150000005B6E74FF480154FF000074FF000067A
:102160004FF00008ADE7F0BC4FF0000001F1C041B6
:1021700001F00041BDE8008111EA0C1F0CEA1315C3
:1021800000D00CE013EA0C1F00F025804FF0000097
:10219000F0BC81EA030101F00041BDE80081F0BC20
:1021A000BDE8004181EA030100F0C1B8F0BCBDE820
:1021B000004170B500F06DF8097EFC3E00F007B8F4
:1021C00081EA03014FF0000001F00041704781EA0D
:1021D000030100F0ACB8F0BCBDE800414FF00000D6
:1021E00021497047FFFDFBF9F7F5F4F2F0EEEDEB56
:1021F000E9E8E6E4E3E1E0DEDDDBDAD8D7D5D4D305
:10220000D1D0CFCDCCCBCAC8C7C6C5C4C2C1C0BF50
:10221000BEBDBCBBBAB9B8B7B6B5B4B3B2B1B0AF56
:10222000AEADACABAAA9A8A8A7A6A5A4A3A3A2A13A
:10223000A09F9F9E9D9C9C9B9A99999897979695F5
:1022400095949393929191908F8F8E8E8D8C8C8B91
:102250008B8A898988888787868585848483838219
:10226000828181800000FF070000F87FB0FA80F3D0
:1022700010FA03F10AD0C3F11D0303F580634FEA9E
:1022800041504FEA035202EBD12170474FF000005A
:1022900070470EF1020E2EF0030E5EF8046B36420C
:1022A00005D4012A43EB030515F5001F12D80128B8
:1022B00041EB010C1CF5001F0CD80ED14FEAD17C6C
:1022C00015F5001F0CEB4C0C0CF1020C08BF4CEB8D
:1022D000D37C04E04FF0080C01E04FEAD37C0CEB18
:1022E0004C0526FA05F606F00706B6F1040C06D2F0
:1022F0000EEB860CBDE870404CF0010C6047DFE847
:102300000CF0090B02024FF000414FF00000A1F564
:10231000002170BD19461046012851EB010418BF79
:10232000D4F5001484BF002001F0004170BD0808FE
:10233000A0F500114FEA3101704700004FF47F0C07
:102340001CEAD0121EBF1CEAD11392EA0C0F93EACA
:102350000C0F00F0478090EA010F48BF42F48072F2
:102360004FF0004C4CEA00204CEA012102EB030242
:10237000A0FB0113A2F50002002918BF43F00103DE
:102380005B0028BF4FEA330342EB22425FEA132C83
:102390004CEBC2502EBFBCEB436FB2F57C0F7047C5
:1023A0004FEA036CBCF1004F08BF20F00100B2F50A
:1023B0007C0F38BF70470BD582F0FF0212F5803FCB
:1023C000C8BF704700F1C040D8BF00F00040704760
:1023D00000F5000C5FEA4C0C48BF7047B0F1C040FC
:1023E00000F073B890EA010F0CEAD11348BF42F431
:1023F0008072624538BF634504D280EA010000F074
:102400000040704710B500F01AF800BF8900013E87
:1024100000F007B800F009B85FEA410C5FEA1C6CF5
:1024200008D080EA010000F050B85FEA400C5FEA93
:102430001C6CF6D14FF00040A0F5800070470EF103
:10244000020E2EF0030E5EF8044B244204D44FEA31
:102450004102B2F17F4F11D84FEA4003B3F17F4FF1
:102460000CD80ED14FEAD07CB2F17F4F0CEB4C0C64
:102470000CF1020C08BF4CEBD17C04E04FF0080CCF
:1024800001E04FEAD17C0CEB4C0324FA03F404F096
:102490000704B4F1040C06D20EEB840CBDE8104026
:1024A0004CF0010C6047DFE80CF0070802024FF027
:1024B0000040A0F5800010BD0846420018BFD2F1D0
:1024C000807288BF00F0004010BDFF2141EAD0506B
:1024D000C005704700000000000000000000000080
:1024E000000000003F40000000000000000030003D
:1024F000400030004000000009000BC03D000BC050
:102500003D00090018C024407FE0224031800000D7
:10251000180024C01B000D803240018003801C4045
:1025200027401C80074000401000600000000000B1
:10253000000000000000000000001F80204040203C
:102540000000402020401F8000000000090006001D
:102550001F80060009000000040004003F80040002
:1025600004000000001000600000000000000000F7
:102570000400040004000400040000000000004007
:102580000000000000000000002001C0060038002C
:10259000400000001F802040204020401F8000009D
:1025A000000010403FC000400000000018C0214063
:1025B0002240244018400000108020402440244045
:1025C0001B80000002000D0011003FC00140000010
:1025D0003C80244024402440238000001F8024406D
:1025E00024403440038000003000200027C0380021
:1025F000200000001B802440244024401B80000059
:102600001C0022C0224022401F8000000000000069
:10261000084000000000000000000000046000000E
:1026200000000000000004000A001100208040406B
:1026300009000900090009000900000000004040ED
:10264000208011000A00040018002000234024000C
:10265000180000001F802040274029401F40000034
:10266000004007C039000F0001C0004020403FC0BB
:10267000244024401B8000001F8020402040204038
:102680003080000020403FC0204020401F800000DC
:1026900020403FC024402E4030C0000020403FC0BA
:1026A00024402E00300000000F0010802040224007
:1026B0003380020020403FC0040004003FC020409F
:1026C000204020403FC020402040000000602020EB
:1026D00020203FC02000200020403FC024400B00AD
:1026E00030C0204020403FC020400040004000C09B
:1026F0003FC03C0003C03C003FC0000020403FC042
:102700000C4023003FC020001F802040204020407C
:102710001F80000020403FC024402400180000001B
:102720001F802140214020E01FA0000020403FC02A
:102730002440260019C0004018C0244024402240F4
:1027400031800000300020403FC0204030000000B9
:1027500020003F80004000403F80200020003E00DD
:1027600001C0070038002000380007C03C0007C047
:1027700038000000204039C0060039C02040000069
:102780002000384007C0384020000000304021C001
:102790002640384020C00000000000007FE04020BC
:1027A00040200000000070000C000380004000008A
:1027B0000000402040207FE00000000000002000DA
:1027C0004000200000000000001000100010001069
:1027D0000010001000000000400000000000000099
:1027E000000002800540054003C0004020003FC0BB
:1027F00004400440038000000000038004400440C3
:102800000640000000000380044024403FC0004018
:102810000000038005400540034000000000044024
:102820001FC0244024402000000002E00550055055
:102830000650042020403FC00440040003C0004074
:102840000000044027C000400000000000100010FD
:10285000041027E00000000020403FC001400700B6
:1028600004C00440204020403FC000400040000021
:1028700007C0040007C0040003C00000044007C0F4
:102880000440040003C000400000038004400440F2
:1028900003800000041007F004500440038000008F
:1028A000000003800440045007F00010044007C0FB
:1028B00002400400040000000000064005400540FE
:1028C00004C00000000004001F800440004000001D
:1028D000040007800040044007C0004004000700D7
:1028E00004C0018006000400060001C0070001C00A
:1028F00006000000044006C0010006C004400000BD
:102900000410071004E001800600040000000440E9
:1029100005C00640044000000000000004007BE009
:1029200040200000000000000000FFF00000000058
:10293000000040207BE00400000000004000800018
:1029400040002000200040000000000000000000C7
:1029500000000000000000000000000000001FCC8C
:10296000000C0000000000000000080030006000C3
:102970000800300060000000022003FC1E2002203E
:1029800003FC1E200220000000000E1811043FFF6F
:1029900010840C78000000000F0010840F3800C075
:1029A000077818840078000000780F8410C4112480
:1029B0000E9800E400840008080068007000000021
:1029C000000000000000000000000000000007E020
:1029D00018182004400200000000400220041818CB
:1029E00007E00000000000000240024001800FF0FC
:1029F00001800240024000000080008000800FF84B
:102A000000800080008000000001000D000E00002A
:102A10000000000000000000000000800080008036
:102A200000800080008000800000000C000C00008E
:102A30000000000000000000000000060018006018
:102A40000180060018002000000007F008081004AC
:102A50001004080807F000000000080408041FFC28
:102A6000000400040000000000000E0C10141024EC
:102A7000104411840E0C000000000C181004110406
:102A8000110412880C700000000000E003200424F0
:102A900008241FFC0024000000001F98108411046B
:102AA0001104108810700000000007F0088811045D
:102AB000110418880070000000001C00100010FCB9
:102AC00013001C001000000000000E381144108498
:102AD000108411440E38000000000700088C1044D8
:102AE0001044088807F00000000000000000030CFC
:102AF000030C0000000000000000000000010106BF
:102B000000000000000000000000008001400220E2
:102B100004100808100400000220022002200220F5
:102B20000220022002200000000010040808041007
:102B3000022001400080000000000E001200100C76
:102B4000106C10800F00000003E00C1813E4142434
:102B500017C4082807D000000004003C03C41C4030
:102B6000074000E4001C000410041FFC11041104C1
:102B700011040E880070000003E00C18100410040B
:102B8000100410081C10000010041FFC1004100496
:102B90001004080807F0000010041FFC11041104C1
:102BA00017C410040818000010041FFC11041100C1
:102BB00017C010000800000003E00C1810041004F7
:102BC00010441C780040000010041FFC108400809A
:102BD000008010841FFC10040000100410041FFC6F
:102BE0001004100400000000000300011001100197
:102BF0001FFE10001000000010041FFC11040380D1
:102C00001464181C1004000010041FFC10040004BD
:102C100000040004000C000010041FFC1F0000FC56
:102C20001F001FFC1004000010041FFC0C04030014
:102C300000E010181FFC100007F008081004100432
:102C40001004080807F0000010041FFC1084108016
:102C5000108010800F00000007F0081810241024C6
:102C6000101C080A07F2000010041FFC11041100D8
:102C700011C011300E0C000400000E1C1104108451
:102C8000108410441C3800001800100010041FFCB1
:102C9000100410001800000010001FF810040004B9
:102CA000000410041FF8100010001E0011E0001CAA
:102CB000007013801C0010001FC0103C00E01F00BB
:102CC00000E0103C1FC000001004180C163401C0B6
:102CD00001C01634180C100410001C00130400FC72
:102CE00013041C00100000000804101C1064108461
:102CF00013041C04101800000000000000007FFEF8
:102D00004002400240020000000030000C0003803E
:102D10000060001C0003000000004002400240026E
:102D20007FFE0000000000000000000020004000C6
:102D300040004000200000000001000100010001EF
:102D400000010001000100010000400040002000DF
:102D50000000000000000000000000980124014471
:102D60000144014400FC000410001FFC0088010421
:102D70000104008800700000000000700088010459
:102D800001040104008800000000007000880104B4
:102D9000010411081FFC0004000000F80144014474
:102DA0000144014400C800000000010401040FFCBC
:102DB0001104110411001800000000D60129012996
:102DC000012901C90106000010041FFC0084010054
:102DD0000100010400FC000400000104190419FCB6
:102DE00000040004000000000000000300010101D5
:102DF000190119FE0000000010041FFC002400400F
:102E000001B4010C010400000000100410041FFCB8
:102E10000004000400000000010401FC01040100A2
:102E200001FC0104010000FC010401FC008401001C
:102E30000100010400FC0004000000F8010401048A
:102E40000104010400F80000010101FF00850104F4
:102E50000104008800700000000000700088010478
:102E60000104010501FF00010104010401FC0084CB
:102E70000104010001800000000000CC01240124B5
:102E8000012401240198000000000100010007F85E
:102E90000104010400000000010001F80004000426
:102EA0000004010801FC0004010001800170000C15
:102EB000001001600180010001F0010C003001C030
:102EC0000030010C01F0010000000104018C0074CD
:102ED0000170018C01040000010101810171000EEB
:102EE000001801600180010000000184010C013420
:102EF00001440184010C00000000000000000000FB
:102F000001003EFC40024002000000000000000002
:102F1000FFFF0000000000000000400240023EFCF5
:102F20000100000000000000000060008000800040
:102F300040004000200020000000000000000000D1
:102F40000000000000000000000000000000000081
:102F50000000000000000000000000000000000071
:102F600000000000000000000000000F80380FFE8D
:102F7000380F803800000000000000000000000052
:102F80000000000000000100000600000C000038F6
:102F900000003100000600000C0000380000300086
:102FA000000000000000000061800067F807F98061
:102FB0000061800061800061800061800067F80727
:102FC000F98000618000000000000000000001C0E6
:102FD000E003E0F00630080418081FFFFE040E08A6
:102FE0000787F00381E000000000000001F0000608
:102FF0000C00040408060C7001F9C0000E00003B30
:10300000E000EC18070808040C180003E0000000BA
:103010000001E00007F003F818041C080417080773
:10302000E1D003C0E00023B0003C0800200800000D
:10303000100000000000000100003100003200001C
:103040001C00000000000000000000000000000064
:103050000000000000000000000000000000000070
:1030600000000000000000007F0001FFC00780F0AA
:103070000C001810000420000200000000000020D6
:1030800000021000040C00180780F001FFC0007F50
:103090000000000000000000000000000000000030
:1030A000000000004200006600006600003C0000D6
:1030B000180003FFC0001800003C00006600006616
:1030C00000004200000000000800000800000800A6
:1030D00000080000080001FFC00008000008000010
:1030E00008000008000008000000000000010000C7
:1030F0003100003200001C00000000000000000051
:1031000000000000000000000000000000000000BF
:10311000080000080000080000080000080000087F
:10312000000008000008000008000008000000007F
:1031300000000000000000003800003800003800E7
:10314000000000000000000000000000000000007F
:103150000000000000000000000600001C000070DD
:10316000000180000E0000380000C0000700001CB5
:103170000000300000000000000000007F8001FF20
:10318000E003807006001804000804000806001818
:1031900003807001FFE0007F80000000000000005D
:1031A000000001000801000801000803FFF807FF04
:1031B000F8000008000008000008000000000000FF
:1031C00000000001C03802C058040098040118042F
:1031D0000218040418061C1803F81801E0F800008F
:1031E0000000000000000001C0E003C0F00400087F
:1031F00004080804080806180803F41801E7F0009A
:1032000001E0000000000000000000000300000DCD
:103210000000110000610000810803010807FFF8A9
:103220000FFFF80001080001080000000000000086
:1032300000E007FCD0060808061008061008061073
:1032400008061838060FF00607C00000000000004E
:10325000000000003F8001FFE003843002081804F2
:103260001008041008041008071810030FF00007D6
:10327000C000000000000000000003C000070000C4
:103280000600000600F80607F806180006E000072A
:10329000000006000000000000000001E1E003F76C
:1032A000F0063410041808041808040C08040C086C
:1032B00006161803F3F001C1E00000000000000052
:1032C000F80003FC30030638040208040208040274
:1032D000080404100308F001FFC0007F0000000094
:1032E00000000000000000000000000000000000DE
:1032F00070380070380070380000000000000000D6
:1033000000000000000000000000000000000000BD
:1033100000000000301A00301C0000000000000017
:103320000000000000000000000000000000000895
:1033300000001400002200004100008080010040D5
:103340000200200400100800080000000000000037
:1033500021000021000021000021000021000021A7
:1033600000002100002100002100002100000000D9
:103370000000000000000800080400100200200106
:10338000004000808000410000220000140000087E
:103390000000000000000003C00004C000040000A2
:1033A000080038080F380808380810000C300007EB
:1033B000E00003C000000000000000003F8000FFAC
:1033C000E0038070020F1006708804C08804830830
:1033D000047F8802C09003012000FE400000080026
:1033E00000180001F8003E0801C20007020007E2D1
:1033F0000000FE00001FC80001F8000038000008AF
:1034000004000807FFF807FFF80408080408080488
:10341000080804080806180803F41801E7F000017A
:10342000E0000000000000003F8001FFE00380702A
:103430000200180400080400080400080400100634
:1034400000200780C000000004000807FFF807FF05
:10345000F804000804000804000804001802001022
:1034600003807001FFE0007F800000000400080777
:10347000FFF807FFF804080804080804080804080F
:1034800008043E080400080600180100600000005F
:1034900004000807FFF807FFF80408080408000400
:1034A0000800040800043E00060000060000018039
:1034B00000000000000000003F8001FFE00380707A
:1034C0000600180400080402080402080203F007BA
:1034D00083F000020000020004000807FFF807FF65
:1034E000F8040808000800000800000800000800B0
:1034F00004080807FFF807FFF804000800000000B0
:10350000000004000804000804000807FFF807FF93
:10351000F80400080400080400080000000000008F
:103520000000000000060000070000010400010484
:10353000000104000307FFFE07FFFC040000040075
:103540000004000004000807FFF807FFF8040C0857
:10355000001800003E0004C7800503C80600F804F8
:10356000003804001800000804000807FFF807FFEF
:10357000F804000800000800000800000800000827
:1035800000000800001800006000000004000807A8
:10359000FFF807800807FC00007FC00003F8000761
:1035A000C000780007800807FFF807FFF80400084C
:1035B00004000807FFF807000803C00000E000004F
:1035C0003800001E000007000001C00400F007FFE3
:1035D000F8040000000000007F8001FFE00380701D
:1035E0000600180400080400080600180300300153
:1035F000FFE0007F8000000004000807FFF807FFDD
:10360000F804040804040004040004040004040092
:10361000060C0003F80001F00000000000000000AC
:103620007F8001FFE00380700600880400880400AA
:10363000C806003C03003E01FFE6007F8400000056
:1036400004000807FFF807FFF8040808040800044E
:103650000C00040F00040BC00610F003F03801E06A
:103660000800000800000001E0F803F03006301008
:10367000041808041808040C08040C0802061802B0
:1036800007F00781E0000000018000060000040050
:103690000004000004000807FFF807FFF804000812
:1036A0000400000400000600000180000400000780
:1036B000FFE007FFF0040018000008000008000009
:1036C0000800000800000804001007FFE0040000E4
:1036D00004000006000007E00007FE00041FE000F1
:1036E00001F80000380001E0043E0007C0000600B9
:1036F0000004000004000007E00007FFC0041FF8FA
:103700000007C007F80007FF80043FF80007C00467
:10371000F800070000040000000000040008060094
:103720001807C07805F1C8003E00001F800463E858
:103730000780F806001804000800000004000006D6
:10374000000007800007E008047C08001FF800075D
:10375000F800180804E00807000006000004000054
:103760000000000100080600380400F80403E80423
:103770000F08047C0805F00807C0080700180400BB
:1037800060000000000000000000000000000000D9
:103790000000003FFFFE2000022000022000022067
:1037A00000022000020000000000000000000800ED
:1037B0000007000000C0000038000006000001C043
:1037C00000003000000E00000100000000000000BA
:1037D0000000200002200002200002200002200041
:1037E000023FFFFE0000000000000000000000009B
:1037F0000000000000000000000800001000003081
:103800000000200000300000100000080000000050
:1038100000000000000001000001000001000001A4
:103820000000010000010000010000010000010093
:103830000001000001000001000000000000000085
:103840000020000020000010000010000000000018
:103850000000000000000000000000000000000068
:1038600000F00019F8001B180022080026080024A8
:1038700008002410003FF8001FF80000080000189E
:1038800000000004000007FFF80FFFF00018180008
:103890001008002008002008003018001FF0000F5A
:1038A000C00000000000000007C0001FF00018303A
:1038B000002008002008002008003C08001C100020
:1038C00000600000000000000000000007C0001FB2
:1038D000F00038180020080020080020080410100C
:1038E00007FFF80FFFF000001000000000000000CC
:1038F00000000007C0001FF0001230002218002254
:1039000008002208003208001E10000E20000000EF
:1039100000000000200000200800200801FFF8033C
:10392000FFF80620080420080420080720000300F0
:103930000000000000000000000E000E6E001FF3EB
:103940000031B10020B10020B1003191001F1300FF
:103950002E1E00200E00300000000004000807FFAB
:10396000F80FFFF8001008002000002000002008D9
:10397000003FF8001FF800000800000000000000F1
:103980000000002008002008002008063FF8063F3D
:10399000F800000800000800000800000000000017
:1039A00000000000000000000300000300200100F0
:1039B0002001002003063FFE063FFC00000000003F
:1039C0000000000000000004000807FFF80FFFF8E7
:1039D000000188000300002FC00038F800203800E4
:1039E00020080000080000000000000000000400A3
:1039F0000804000804000807FFF80FFFF80000089B
:103A0000000008000008000000000000002008007E
:103A10003FF8003FF8001008002000003FF8003F8A
:103A2000F8001008002000003FF8003FF8000008F0
:103A3000000000002008003FF8003FF800100800D8
:103A40001000002000002008003FF8001FF80000D0
:103A5000080000000000000007C0000FF000183050
:103A6000003008002008002008003008001830004E
:103A70000FF00007C0000000000000002001003F20
:103A8000FF003FFF0010110020090020080020085F
:103A9000003038001FF0000FC000000000000000E0
:103AA00007C0001FF0003818002008002008002080
:103AB00009001011001FFF003FFF0000010000007F
:103AC000002008002008002008003FF8003FF80010
:103AD0000808001008002008002000003000003016
:103AE00000000000000000000000000C78001E181C
:103AF00000330800230800210800218800219800D5
:103B000030F00038600000000000000020000020BD
:103B10000000200000FFF003FFF80020080020084C
:103B2000002008000030000000000000000000003D
:103B30002000003FF0007FF800001800000800009F
:103B400008002010003FF8007FF000001000000087
:103B5000000000002000003000003C00003F80001A
:103B600023F0000078000070002380003C0000304B
:103B700000002000002000003C00003FE00023F88F
:103B80000000E0002700003E00003FE00021F800B8
:103B900001E0003E0000200000000000200800209E
:103BA00008003838003E680027800003C8002CF861
:103BB0000038380020180020080000000000000035
:103BC0002000003003003C01003F830023EC000094
:103BD00070002380003C0000200000200000000056
:103BE0000000000000000038080020380020F80025
:103BF00023E8002F88003E08003808002018000045
:103C00007000000000000000000000000000000044
:103C10000000000008000014001FF7FC3000062020
:103C20000002000000000000000000000000000092
:103C300000000000000000000000FFFFFF00000087
:103C40000000000000000000000000000000000074
:103C500000002000023000061FF7FC0014000008DE
:103C60000000000000000000000000000000000054
:103C7000000000180000600000400000400000202C
:103C800000001000000800000400000400000C0008
:103C90000010000030313233343536373839414284
:103CA000434445464030580030313233343536379E
:103CB000383961626364656640307800DC3C000836
:103CC000000000207414000028010008B03E000825
:103CD00074140020BC0B0000840100089184A24AE7
:103CE00004200901020304060708091BF010012A39
:103CF000FF0552F01B0F04012AFF05320F1809407F
:103D000040405F55555575041A5F0C1911180C2069
:103D10000F094989790909090F200F112FFE024265
:103D20004ACA4A03344202FE400EFF40504C434010
:103D3000404F50505C40FF1BF888012AFF0552F8A5
:103D40001B1F08012A7F10149F80F03B80820160B6
:103D500009E2A2928A868280808440807F17242490
:103D6000A4FEA3221B22CC5A4115080601FF2A01FA
:103D70009E1604FF02020239BC5B90086312081011
:103D8000100444827F01808040432C1028468180AB
:103D900019281E84E43C2724011AE40C111404029F
:103DA000011AFFBD19C4496415FE225A862BFE92E2
:103DB0000129BF111DFF040807C51F20030C142291
:103DC00041E1178040201806802D071820409E12E0
:103DD00001100B20702826212020243860230101A7
:103DE0003B10123C3D9212120240211A3F948B105C
:103DF0003FC54BC080014BFC84080336C0C03CFF6C
:103E00007F40014AFF075B40FF600138034A7F7033
:103E10000373FCF86CFFFE02018BFFFF0B026803CB
:103E20006C1F1F04017BFFFF0B02741F038C7F3F7D
:103E300007FFF8F8F0F0702001E60214801AFF0185
:103E400009122C09132D01FF01C0EDFFFFFE060131
:103E50001AFF01F915391603FF070201D10C12FFF1
:103E6000FFFF1409101509151601FF01C1EDFFFF31
:103E7000FF18011914091015391601FF01D2041297
:103E80000201011AFF01011209122A01FF01D71ACA
:103E9000FF0101FF01FD05FF1F1F0F0F01EC450290
:103EA0000406082D010203040405000607080900A2
:04000005080000ED02
:00000001FF
